{
  "address": "0xA449635FaAA6b5a45a568fCe217Bb7921c992285",
  "abi": [
    {
      "inputs": [
        {
          "internalType": "uint256",
          "name": "controllerGasLimit",
          "type": "uint256"
        }
      ],
      "stateMutability": "nonpayable",
      "type": "constructor"
    },
    {
      "inputs": [],
      "name": "CannotUpdateEmptyPosition",
      "type": "error"
    },
    {
      "inputs": [],
      "name": "ERC20TransferFailed",
      "type": "error"
    },
    {
      "inputs": [],
      "name": "InvalidHookResponse",
      "type": "error"
    },
    {
      "inputs": [],
      "name": "InvalidSqrtRatio",
      "type": "error"
    },
    {
      "inputs": [],
      "name": "InvalidTick",
      "type": "error"
    },
    {
      "inputs": [],
      "name": "NativeTransferFailed",
      "type": "error"
    },
    {
      "inputs": [],
      "name": "NoLiquidityToReceiveFees",
      "type": "error"
    },
    {
      "inputs": [],
      "name": "PoolAlreadyInitialized",
      "type": "error"
    },
    {
      "inputs": [],
      "name": "PoolNotInitialized",
      "type": "error"
    },
    {
      "inputs": [
        {
          "internalType": "uint160",
          "name": "sqrtPriceCurrentX96",
          "type": "uint160"
        },
        {
          "internalType": "uint160",
          "name": "sqrtPriceLimitX96",
          "type": "uint160"
        }
      ],
      "name": "PriceLimitAlreadyExceeded",
      "type": "error"
    },
    {
      "inputs": [
        {
          "internalType": "uint160",
          "name": "sqrtPriceLimitX96",
          "type": "uint160"
        }
      ],
      "name": "PriceLimitOutOfBounds",
      "type": "error"
    },
    {
      "inputs": [],
      "name": "SwapAmountCannotBeZero",
      "type": "error"
    },
    {
      "inputs": [
        {
          "internalType": "int24",
          "name": "tick",
          "type": "int24"
        }
      ],
      "name": "TickLiquidityOverflow",
      "type": "error"
    },
    {
      "inputs": [
        {
          "internalType": "int24",
          "name": "tickLower",
          "type": "int24"
        }
      ],
      "name": "TickLowerOutOfBounds",
      "type": "error"
    },
    {
      "inputs": [
        {
          "internalType": "int24",
          "name": "tick",
          "type": "int24"
        },
        {
          "internalType": "int24",
          "name": "tickSpacing",
          "type": "int24"
        }
      ],
      "name": "TickMisaligned",
      "type": "error"
    },
    {
      "inputs": [
        {
          "internalType": "int24",
          "name": "tickUpper",
          "type": "int24"
        }
      ],
      "name": "TickUpperOutOfBounds",
      "type": "error"
    },
    {
      "inputs": [
        {
          "internalType": "int24",
          "name": "tickLower",
          "type": "int24"
        },
        {
          "internalType": "int24",
          "name": "tickUpper",
          "type": "int24"
        }
      ],
      "name": "TicksMisordered",
      "type": "error"
    },
    {
      "anonymous": false,
      "inputs": [
        {
          "indexed": true,
          "internalType": "address",
          "name": "account",
          "type": "address"
        },
        {
          "indexed": true,
          "internalType": "address",
          "name": "operator",
          "type": "address"
        },
        {
          "indexed": false,
          "internalType": "bool",
          "name": "approved",
          "type": "bool"
        }
      ],
      "name": "ApprovalForAll",
      "type": "event"
    },
    {
      "anonymous": false,
      "inputs": [
        {
          "indexed": true,
          "internalType": "address",
          "name": "operator",
          "type": "address"
        },
        {
          "indexed": true,
          "internalType": "address",
          "name": "from",
          "type": "address"
        },
        {
          "indexed": true,
          "internalType": "address",
          "name": "to",
          "type": "address"
        },
        {
          "indexed": false,
          "internalType": "uint256[]",
          "name": "ids",
          "type": "uint256[]"
        },
        {
          "indexed": false,
          "internalType": "uint256[]",
          "name": "values",
          "type": "uint256[]"
        }
      ],
      "name": "TransferBatch",
      "type": "event"
    },
    {
      "anonymous": false,
      "inputs": [
        {
          "indexed": true,
          "internalType": "address",
          "name": "operator",
          "type": "address"
        },
        {
          "indexed": true,
          "internalType": "address",
          "name": "from",
          "type": "address"
        },
        {
          "indexed": true,
          "internalType": "address",
          "name": "to",
          "type": "address"
        },
        {
          "indexed": false,
          "internalType": "uint256",
          "name": "id",
          "type": "uint256"
        },
        {
          "indexed": false,
          "internalType": "uint256",
          "name": "value",
          "type": "uint256"
        }
      ],
      "name": "TransferSingle",
      "type": "event"
    },
    {
      "anonymous": false,
      "inputs": [
        {
          "indexed": false,
          "internalType": "string",
          "name": "value",
          "type": "string"
        },
        {
          "indexed": true,
          "internalType": "uint256",
          "name": "id",
          "type": "uint256"
        }
      ],
      "name": "URI",
      "type": "event"
    },
    {
      "inputs": [],
      "name": "MAX_TICK_SPACING",
      "outputs": [
        {
          "internalType": "int24",
          "name": "",
          "type": "int24"
        }
      ],
      "stateMutability": "view",
      "type": "function"
    },
    {
      "inputs": [],
      "name": "MIN_PROTOCOL_FEE_DENOMINATOR",
      "outputs": [
        {
          "internalType": "uint8",
          "name": "",
          "type": "uint8"
        }
      ],
      "stateMutability": "view",
      "type": "function"
    },
    {
      "inputs": [
        {
          "internalType": "address",
          "name": "account",
          "type": "address"
        },
        {
          "internalType": "uint256",
          "name": "id",
          "type": "uint256"
        }
      ],
      "name": "balanceOf",
      "outputs": [
        {
          "internalType": "uint256",
          "name": "",
          "type": "uint256"
        }
      ],
      "stateMutability": "view",
      "type": "function"
    },
    {
      "inputs": [
        {
          "internalType": "address[]",
          "name": "accounts",
          "type": "address[]"
        },
        {
          "internalType": "uint256[]",
          "name": "ids",
          "type": "uint256[]"
        }
      ],
      "name": "balanceOfBatch",
      "outputs": [
        {
          "internalType": "uint256[]",
          "name": "",
          "type": "uint256[]"
        }
      ],
      "stateMutability": "view",
      "type": "function"
    },
    {
      "inputs": [
        {
          "internalType": "address",
          "name": "recipient",
          "type": "address"
        },
        {
          "internalType": "Currency",
          "name": "currency",
          "type": "address"
        },
        {
          "internalType": "uint256",
          "name": "amount",
          "type": "uint256"
        }
      ],
      "name": "collectHookFees",
      "outputs": [
        {
          "internalType": "uint256",
          "name": "amountCollected",
          "type": "uint256"
        }
      ],
      "stateMutability": "nonpayable",
      "type": "function"
    },
    {
      "inputs": [
        {
          "internalType": "address",
          "name": "recipient",
          "type": "address"
        },
        {
          "internalType": "Currency",
          "name": "currency",
          "type": "address"
        },
        {
          "internalType": "uint256",
          "name": "amount",
          "type": "uint256"
        }
      ],
      "name": "collectProtocolFees",
      "outputs": [
        {
          "internalType": "uint256",
          "name": "amountCollected",
          "type": "uint256"
        }
      ],
      "stateMutability": "nonpayable",
      "type": "function"
    },
    {
      "inputs": [
        {
          "internalType": "address",
          "name": "locker",
          "type": "address"
        },
        {
          "internalType": "Currency",
          "name": "currency",
          "type": "address"
        }
      ],
      "name": "currencyDelta",
      "outputs": [
        {
          "internalType": "int256",
          "name": "currencyDelta",
          "type": "int256"
        }
      ],
      "stateMutability": "view",
      "type": "function"
    },
    {
      "inputs": [
        {
          "components": [
            {
              "internalType": "Currency",
              "name": "currency0",
              "type": "address"
            },
            {
              "internalType": "Currency",
              "name": "currency1",
              "type": "address"
            },
            {
              "internalType": "uint24",
              "name": "fee",
              "type": "uint24"
            },
            {
              "internalType": "int24",
              "name": "tickSpacing",
              "type": "int24"
            },
            {
              "internalType": "contract IHooks",
              "name": "hooks",
              "type": "address"
            }
          ],
          "internalType": "struct PoolKey",
          "name": "key",
          "type": "tuple"
        },
        {
          "internalType": "uint256",
          "name": "amount0",
          "type": "uint256"
        },
        {
          "internalType": "uint256",
          "name": "amount1",
          "type": "uint256"
        },
        {
          "internalType": "bytes",
          "name": "hookData",
          "type": "bytes"
        }
      ],
      "name": "donate",
      "outputs": [
        {
          "internalType": "BalanceDelta",
          "name": "delta",
          "type": "int256"
        }
      ],
      "stateMutability": "nonpayable",
      "type": "function"
    },
    {
      "inputs": [
        {
          "internalType": "bytes32",
          "name": "slot",
          "type": "bytes32"
        }
      ],
      "name": "extsload",
      "outputs": [
        {
          "internalType": "bytes32",
          "name": "value",
          "type": "bytes32"
        }
      ],
      "stateMutability": "view",
      "type": "function"
    },
    {
      "inputs": [
        {
          "internalType": "PoolId",
          "name": "id",
          "type": "bytes32"
        },
        {
          "internalType": "address",
          "name": "_owner",
          "type": "address"
        },
        {
          "internalType": "int24",
          "name": "tickLower",
          "type": "int24"
        },
        {
          "internalType": "int24",
          "name": "tickUpper",
          "type": "int24"
        }
      ],
      "name": "getLiquidity",
      "outputs": [
        {
          "internalType": "uint128",
          "name": "liquidity",
          "type": "uint128"
        }
      ],
      "stateMutability": "view",
      "type": "function"
    },
    {
      "inputs": [
        {
          "internalType": "PoolId",
          "name": "id",
          "type": "bytes32"
        }
      ],
      "name": "getLiquidity",
      "outputs": [
        {
          "internalType": "uint128",
          "name": "liquidity",
          "type": "uint128"
        }
      ],
      "stateMutability": "view",
      "type": "function"
    },
    {
      "inputs": [
        {
          "internalType": "uint256",
          "name": "i",
          "type": "uint256"
        }
      ],
      "name": "getLock",
      "outputs": [
        {
          "internalType": "address",
          "name": "locker",
          "type": "address"
        }
      ],
      "stateMutability": "view",
      "type": "function"
    },
    {
      "inputs": [
        {
          "internalType": "PoolId",
          "name": "id",
          "type": "bytes32"
        },
        {
          "internalType": "address",
          "name": "owner",
          "type": "address"
        },
        {
          "internalType": "int24",
          "name": "tickLower",
          "type": "int24"
        },
        {
          "internalType": "int24",
          "name": "tickUpper",
          "type": "int24"
        }
      ],
      "name": "getPosition",
      "outputs": [
        {
          "components": [
            {
              "internalType": "uint128",
              "name": "liquidity",
              "type": "uint128"
            },
            {
              "internalType": "uint256",
              "name": "feeGrowthInside0LastX128",
              "type": "uint256"
            },
            {
              "internalType": "uint256",
              "name": "feeGrowthInside1LastX128",
              "type": "uint256"
            }
          ],
          "internalType": "struct Position.Info",
          "name": "position",
          "type": "tuple"
        }
      ],
      "stateMutability": "view",
      "type": "function"
    },
    {
      "inputs": [
        {
          "internalType": "PoolId",
          "name": "id",
          "type": "bytes32"
        }
      ],
      "name": "getSlot0",
      "outputs": [
        {
          "internalType": "uint160",
          "name": "sqrtPriceX96",
          "type": "uint160"
        },
        {
          "internalType": "int24",
          "name": "tick",
          "type": "int24"
        },
        {
          "internalType": "uint24",
          "name": "protocolFees",
          "type": "uint24"
        },
        {
          "internalType": "uint24",
          "name": "hookFees",
          "type": "uint24"
        }
      ],
      "stateMutability": "view",
      "type": "function"
    },
    {
      "inputs": [
        {
          "internalType": "address",
          "name": "hookAddress",
          "type": "address"
        },
        {
          "internalType": "Currency",
          "name": "currency",
          "type": "address"
        }
      ],
      "name": "hookFeesAccrued",
      "outputs": [
        {
          "internalType": "uint256",
          "name": "",
          "type": "uint256"
        }
      ],
      "stateMutability": "view",
      "type": "function"
    },
    {
      "inputs": [
        {
          "components": [
            {
              "internalType": "Currency",
              "name": "currency0",
              "type": "address"
            },
            {
              "internalType": "Currency",
              "name": "currency1",
              "type": "address"
            },
            {
              "internalType": "uint24",
              "name": "fee",
              "type": "uint24"
            },
            {
              "internalType": "int24",
              "name": "tickSpacing",
              "type": "int24"
            },
            {
              "internalType": "contract IHooks",
              "name": "hooks",
              "type": "address"
            }
          ],
          "internalType": "struct PoolKey",
          "name": "key",
          "type": "tuple"
        },
        {
          "internalType": "uint160",
          "name": "sqrtPriceX96",
          "type": "uint160"
        },
        {
          "internalType": "bytes",
          "name": "hookData",
          "type": "bytes"
        }
      ],
      "name": "initialize",
      "outputs": [
        {
          "internalType": "int24",
          "name": "tick",
          "type": "int24"
        }
      ],
      "stateMutability": "nonpayable",
      "type": "function"
    },
    {
      "inputs": [
        {
          "internalType": "address",
          "name": "account",
          "type": "address"
        },
        {
          "internalType": "address",
          "name": "operator",
          "type": "address"
        }
      ],
      "name": "isApprovedForAll",
      "outputs": [
        {
          "internalType": "bool",
          "name": "",
          "type": "bool"
        }
      ],
      "stateMutability": "view",
      "type": "function"
    },
    {
      "inputs": [
        {
          "internalType": "bytes",
          "name": "data",
          "type": "bytes"
        }
      ],
      "name": "lock",
      "outputs": [
        {
          "internalType": "bytes",
          "name": "result",
          "type": "bytes"
        }
      ],
      "stateMutability": "nonpayable",
      "type": "function"
    },
    {
      "inputs": [],
      "name": "lockData",
      "outputs": [
        {
          "internalType": "uint128",
          "name": "length",
          "type": "uint128"
        },
        {
          "internalType": "uint128",
          "name": "nonzeroDeltaCount",
          "type": "uint128"
        }
      ],
      "stateMutability": "view",
      "type": "function"
    },
    {
      "inputs": [
        {
          "internalType": "Currency",
          "name": "currency",
          "type": "address"
        },
        {
          "internalType": "address",
          "name": "to",
          "type": "address"
        },
        {
          "internalType": "uint256",
          "name": "amount",
          "type": "uint256"
        }
      ],
      "name": "mint",
      "outputs": [],
      "stateMutability": "nonpayable",
      "type": "function"
    },
    {
      "inputs": [
        {
          "components": [
            {
              "internalType": "Currency",
              "name": "currency0",
              "type": "address"
            },
            {
              "internalType": "Currency",
              "name": "currency1",
              "type": "address"
            },
            {
              "internalType": "uint24",
              "name": "fee",
              "type": "uint24"
            },
            {
              "internalType": "int24",
              "name": "tickSpacing",
              "type": "int24"
            },
            {
              "internalType": "contract IHooks",
              "name": "hooks",
              "type": "address"
            }
          ],
          "internalType": "struct PoolKey",
          "name": "key",
          "type": "tuple"
        },
        {
          "components": [
            {
              "internalType": "int24",
              "name": "tickLower",
              "type": "int24"
            },
            {
              "internalType": "int24",
              "name": "tickUpper",
              "type": "int24"
            },
            {
              "internalType": "int256",
              "name": "liquidityDelta",
              "type": "int256"
            }
          ],
          "internalType": "struct IPoolManager.ModifyPositionParams",
          "name": "params",
          "type": "tuple"
        },
        {
          "internalType": "bytes",
          "name": "hookData",
          "type": "bytes"
        }
      ],
      "name": "modifyPosition",
      "outputs": [
        {
          "internalType": "BalanceDelta",
          "name": "delta",
          "type": "int256"
        }
      ],
      "stateMutability": "nonpayable",
      "type": "function"
    },
    {
      "inputs": [
        {
          "internalType": "address",
          "name": "",
          "type": "address"
        },
        {
          "internalType": "address",
          "name": "",
          "type": "address"
        },
        {
          "internalType": "uint256",
          "name": "id",
          "type": "uint256"
        },
        {
          "internalType": "uint256",
          "name": "value",
          "type": "uint256"
        },
        {
          "internalType": "bytes",
          "name": "",
          "type": "bytes"
        }
      ],
      "name": "onERC1155Received",
      "outputs": [
        {
          "internalType": "bytes4",
          "name": "",
          "type": "bytes4"
        }
      ],
      "stateMutability": "nonpayable",
      "type": "function"
    },
    {
      "inputs": [
        {
          "internalType": "PoolId",
          "name": "id",
          "type": "bytes32"
        }
      ],
      "name": "pools",
      "outputs": [
        {
          "components": [
            {
              "internalType": "uint160",
              "name": "sqrtPriceX96",
              "type": "uint160"
            },
            {
              "internalType": "int24",
              "name": "tick",
              "type": "int24"
            },
            {
              "internalType": "uint24",
              "name": "protocolFees",
              "type": "uint24"
            },
            {
              "internalType": "uint24",
              "name": "hookFees",
              "type": "uint24"
            }
          ],
          "internalType": "struct Pool.Slot0",
          "name": "slot0",
          "type": "tuple"
        },
        {
          "internalType": "uint256",
          "name": "feeGrowthGlobal0X128",
          "type": "uint256"
        },
        {
          "internalType": "uint256",
          "name": "feeGrowthGlobal1X128",
          "type": "uint256"
        },
        {
          "internalType": "uint128",
          "name": "liquidity",
          "type": "uint128"
        }
      ],
      "stateMutability": "view",
      "type": "function"
    },
    {
      "inputs": [],
      "name": "protocolFeeController",
      "outputs": [
        {
          "internalType": "contract IProtocolFeeController",
          "name": "",
          "type": "address"
        }
      ],
      "stateMutability": "view",
      "type": "function"
    },
    {
      "inputs": [
        {
          "internalType": "Currency",
          "name": "currency",
          "type": "address"
        }
      ],
      "name": "protocolFeesAccrued",
      "outputs": [
        {
          "internalType": "uint256",
          "name": "",
          "type": "uint256"
        }
      ],
      "stateMutability": "view",
      "type": "function"
    },
    {
      "inputs": [
        {
          "internalType": "Currency",
          "name": "currency",
          "type": "address"
        }
      ],
      "name": "reservesOf",
      "outputs": [
        {
          "internalType": "uint256",
          "name": "",
          "type": "uint256"
        }
      ],
      "stateMutability": "view",
      "type": "function"
    },
    {
      "inputs": [
        {
          "internalType": "address",
          "name": "from",
          "type": "address"
        },
        {
          "internalType": "address",
          "name": "to",
          "type": "address"
        },
        {
          "internalType": "uint256",
          "name": "id",
          "type": "uint256"
        },
        {
          "internalType": "uint256",
          "name": "amount",
          "type": "uint256"
        },
        {
          "internalType": "bytes",
          "name": "data",
          "type": "bytes"
        }
      ],
      "name": "safeTransferFrom",
      "outputs": [],
      "stateMutability": "nonpayable",
      "type": "function"
    },
    {
      "inputs": [
        {
          "internalType": "address",
          "name": "operator",
          "type": "address"
        },
        {
          "internalType": "bool",
          "name": "approved",
          "type": "bool"
        }
      ],
      "name": "setApprovalForAll",
      "outputs": [],
      "stateMutability": "nonpayable",
      "type": "function"
    },
    {
      "inputs": [
        {
          "components": [
            {
              "internalType": "Currency",
              "name": "currency0",
              "type": "address"
            },
            {
              "internalType": "Currency",
              "name": "currency1",
              "type": "address"
            },
            {
              "internalType": "uint24",
              "name": "fee",
              "type": "uint24"
            },
            {
              "internalType": "int24",
              "name": "tickSpacing",
              "type": "int24"
            },
            {
              "internalType": "contract IHooks",
              "name": "hooks",
              "type": "address"
            }
          ],
          "internalType": "struct PoolKey",
          "name": "key",
          "type": "tuple"
        }
      ],
      "name": "setHookFees",
      "outputs": [],
      "stateMutability": "nonpayable",
      "type": "function"
    },
    {
      "inputs": [
        {
          "internalType": "contract IProtocolFeeController",
          "name": "controller",
          "type": "address"
        }
      ],
      "name": "setProtocolFeeController",
      "outputs": [],
      "stateMutability": "nonpayable",
      "type": "function"
    },
    {
      "inputs": [
        {
          "components": [
            {
              "internalType": "Currency",
              "name": "currency0",
              "type": "address"
            },
            {
              "internalType": "Currency",
              "name": "currency1",
              "type": "address"
            },
            {
              "internalType": "uint24",
              "name": "fee",
              "type": "uint24"
            },
            {
              "internalType": "int24",
              "name": "tickSpacing",
              "type": "int24"
            },
            {
              "internalType": "contract IHooks",
              "name": "hooks",
              "type": "address"
            }
          ],
          "internalType": "struct PoolKey",
          "name": "key",
          "type": "tuple"
        }
      ],
      "name": "setProtocolFees",
      "outputs": [],
      "stateMutability": "nonpayable",
      "type": "function"
    },
    {
      "inputs": [
        {
          "internalType": "Currency",
          "name": "currency",
          "type": "address"
        }
      ],
      "name": "settle",
      "outputs": [
        {
          "internalType": "uint256",
          "name": "paid",
          "type": "uint256"
        }
      ],
      "stateMutability": "payable",
      "type": "function"
    },
    {
      "inputs": [
        {
          "internalType": "bytes4",
          "name": "interfaceId",
          "type": "bytes4"
        }
      ],
      "name": "supportsInterface",
      "outputs": [
        {
          "internalType": "bool",
          "name": "",
          "type": "bool"
        }
      ],
      "stateMutability": "view",
      "type": "function"
    },
    {
      "inputs": [
        {
          "components": [
            {
              "internalType": "Currency",
              "name": "currency0",
              "type": "address"
            },
            {
              "internalType": "Currency",
              "name": "currency1",
              "type": "address"
            },
            {
              "internalType": "uint24",
              "name": "fee",
              "type": "uint24"
            },
            {
              "internalType": "int24",
              "name": "tickSpacing",
              "type": "int24"
            },
            {
              "internalType": "contract IHooks",
              "name": "hooks",
              "type": "address"
            }
          ],
          "internalType": "struct PoolKey",
          "name": "key",
          "type": "tuple"
        },
        {
          "components": [
            {
              "internalType": "bool",
              "name": "zeroForOne",
              "type": "bool"
            },
            {
              "internalType": "int256",
              "name": "amountSpecified",
              "type": "int256"
            },
            {
              "internalType": "uint160",
              "name": "sqrtPriceLimitX96",
              "type": "uint160"
            }
          ],
          "internalType": "struct IPoolManager.SwapParams",
          "name": "params",
          "type": "tuple"
        },
        {
          "internalType": "bytes",
          "name": "hookData",
          "type": "bytes"
        }
      ],
      "name": "swap",
      "outputs": [
        {
          "internalType": "BalanceDelta",
          "name": "delta",
          "type": "int256"
        }
      ],
      "stateMutability": "nonpayable",
      "type": "function"
    },
    {
      "inputs": [
        {
          "internalType": "Currency",
          "name": "currency",
          "type": "address"
        },
        {
          "internalType": "address",
          "name": "to",
          "type": "address"
        },
        {
          "internalType": "uint256",
          "name": "amount",
          "type": "uint256"
        }
      ],
      "name": "take",
      "outputs": [],
      "stateMutability": "nonpayable",
      "type": "function"
    },
    {
      "inputs": [
        {
          "internalType": "uint256",
          "name": "",
          "type": "uint256"
        }
      ],
      "name": "uri",
      "outputs": [
        {
          "internalType": "string",
          "name": "",
          "type": "string"
        }
      ],
      "stateMutability": "view",
      "type": "function"
    },
    {
      "stateMutability": "payable",
      "type": "receive"
    }
  ],
  "transactionHash": "0x96ecd7a4daaf79ae4bbd6bcffdc752724ab0d18006ec476b22e91d21cc54d7f5",
  "args": [
    500000
  ],
  "numDeployments": 1,
  "solcInputHash": "f3c68a0f4f373e9616959b1df272a27b",
  "bytecode": "0x60a06040523480156200001157600080fd5b50604051620061333803806200613383398101604081905262000034916200006d565b604080516020810190915260008152608082905262000053816200005b565b5050620001f8565b60056200006982826200012c565b5050565b6000602082840312156200008057600080fd5b5051919050565b634e487b7160e01b600052604160045260246000fd5b600181811c90821680620000b257607f821691505b602082108103620000d357634e487b7160e01b600052602260045260246000fd5b50919050565b601f8211156200012757600081815260208120601f850160051c81016020861015620001025750805b601f850160051c820191505b8181101562000123578281556001016200010e565b5050505b505050565b81516001600160401b0381111562000148576200014862000087565b62000160816200015984546200009d565b84620000d9565b602080601f8311600181146200019857600084156200017f5750858301515b600019600386901b1c1916600185901b17855562000123565b600085815260208120601f198616915b82811015620001c957888601518255948401946001909101908401620001a8565b5085821015620001e85787850151600019600388901b60f8161c191681555b5050505050600190811b01905550565b608051615f186200021b60003960008181611dca0152611e190152615f186000f3fe6080604052600436106101a25760003560e01c8062fdd58e146101ae57806301ffc9a7146101e1578063048d9c70146102115780630b0d9c091461025c5780630e89341c1461027e5780631e2eaeaf146102ab578063234266d7146102ca578063282076cc146102ea5780632d7713891461030a57806333aa955b146103475780634e1273f41461037f57806360460f06146103ac57806361ae449a146103cf578063695c5bf5146103ef5780636a256b291461040f57806381548319146104225780638161b8741461044257806384e41c5e1461046257806393c85a211461048957806397e8cd4e146104b6578063a22cb465146104e3578063a54b283114610503578063af440f821461053b578063b4c419391461055b578063b5217bb414610593578063c6c3bbe61461068a578063c815641c146106aa578063d68f4dd114610762578063e985e9c51461078f578063effd18c0146107d8578063f02de3b2146107f8578063f23a6e6114610818578063f242432a14610851578063f3cd914c14610871578063f8fcd15614610891578063fa6793d5146108dc57600080fd5b366101a957005b600080fd5b3480156101ba57600080fd5b506101ce6101c9366004614eec565b610915565b6040519081526020015b60405180910390f35b3480156101ed57600080fd5b506102016101fc366004614f2e565b6109b0565b60405190151581526020016101d8565b34801561021d57600080fd5b5061023161022c366004614f5d565b610a00565b6040805182516001600160801b031681526020808401519082015291810151908201526060016101d8565b34801561026857600080fd5b5061027c610277366004614fac565b610a80565b005b34801561028a57600080fd5b5061029e610299366004614fed565b610ad9565b6040516101d89190615056565b3480156102b757600080fd5b506101ce6102c6366004614fed565b5490565b3480156102d657600080fd5b506101ce6102e53660046151c2565b610b6d565b3480156102f657600080fd5b5061027c61030536600461522b565b610ce0565b34801561031657600080fd5b5061027c610325366004615247565b600280546001600160a01b0319166001600160a01b0392909216919091179055565b34801561035357600080fd5b50610367610362366004614f5d565b610d13565b6040516001600160801b0390911681526020016101d8565b34801561038b57600080fd5b5061039f61039a3660046152f8565b610d43565b6040516101d891906153c4565b3480156103b857600080fd5b506103c2617fff81565b6040516101d89190615408565b3480156103db57600080fd5b506101ce6103ea366004615416565b610e6c565b3480156103fb57600080fd5b506103c261040a3660046154b6565b611134565b6101ce61041d366004615247565b611372565b34801561042e57600080fd5b5061029e61043d366004615501565b6113da565b34801561044e57600080fd5b506101ce61045d366004614fac565b6114ed565b34801561046e57600080fd5b50610477600481565b60405160ff90911681526020016101d8565b34801561049557600080fd5b506101ce6104a4366004615247565b60086020526000908152604090205481565b3480156104c257600080fd5b506101ce6104d1366004615247565b60006020819052908152604090205481565b3480156104ef57600080fd5b5061027c6104fe366004615552565b61156c565b34801561050f57600080fd5b506101ce61051e366004615587565b600760209081526000928352604080842090915290825290205481565b34801561054757600080fd5b5061027c61055636600461522b565b61157b565b34801561056757600080fd5b506101ce610576366004615587565b600160209081526000928352604080842090915290825290205481565b34801561059f57600080fd5b506106276105ae366004614fed565b600960209081526000918252604091829020825160808101845281546001600160a01b0381168252600160a01b8104600290810b9483019490945262ffffff600160b81b8204811695830195909552600160d01b900490931660608401526001810154918101546003909101546001600160801b031684565b6040805185516001600160a01b0316815260208087015160020b908201528582015162ffffff9081169282019290925260609586015190911694810194909452608084019290925260a08301526001600160801b031660c082015260e0016101d8565b34801561069657600080fd5b5061027c6106a5366004614fac565b6115ae565b3480156106b657600080fd5b5061072a6106c5366004614fed565b600090815260096020908152604091829020825160808101845290546001600160a01b038116808352600160a01b820460020b93830184905262ffffff600160b81b83048116958401869052600160d01b909204909116606090920182905293919291565b604080516001600160a01b03909516855260029390930b602085015262ffffff918216928401929092521660608201526080016101d8565b34801561076e57600080fd5b5061078261077d366004614fed565b6115e7565b6040516101d891906155c0565b34801561079b57600080fd5b506102016107aa366004615587565b6001600160a01b03918216600090815260046020908152604080832093909416825291909152205460ff1690565b3480156107e457600080fd5b506101ce6107f3366004614fac565b6115f2565b34801561080457600080fd5b50600254610782906001600160a01b031681565b34801561082457600080fd5b506108386108333660046155d4565b611697565b6040516001600160e01b031990911681526020016101d8565b34801561085d57600080fd5b5061027c61086c366004615676565b6116b6565b34801561087d57600080fd5b506101ce61088c366004615734565b611749565b34801561089d57600080fd5b506006546108bc906001600160801b0380821691600160801b90041682565b604080516001600160801b039384168152929091166020830152016101d8565b3480156108e857600080fd5b506103676108f7366004614fed565b6000908152600960205260409020600301546001600160801b031690565b60006001600160a01b0383166109855760405162461bcd60e51b815260206004820152602a60248201527f455243313135353a2061646472657373207a65726f206973206e6f742061207660448201526930b634b21037bbb732b960b11b60648201526084015b60405180910390fd5b5060008181526003602090815260408083206001600160a01b03861684529091529020545b92915050565b60006001600160e01b03198216630f704b8f60e41b14806109e157506001600160e01b031982166303a24d0760e21b145b806109aa57506301ffc9a760e01b6001600160e01b03198316146109aa565b610a2d604051806060016040528060006001600160801b0316815260200160008152602001600081525090565b6000858152600960205260409020610a4a90600601858585611ab6565b6040805160608101825282546001600160801b03168152600183015460208201526002909201549082015290505b949350505050565b610a9283610a8d83611b0e565b611b28565b6001600160a01b03831660009081526008602052604081208054839290610aba9084906157d4565b90915550610ad490506001600160a01b0384168383611c10565b505050565b606060058054610ae8906157e7565b80601f0160208091040260200160405190810160405280929190818152602001828054610b14906157e7565b8015610b615780601f10610b3657610100808354040283529160200191610b61565b820191906000526020600020905b815481529060010190602001808311610b4457829003601f168201915b50505050509050919050565b6080850151600090600160991b1615610c13576080860151604051635b54587d60e11b808252916001600160a01b03169063b6a8b0fa90610bbc9033908b908b908b908b908b90600401615887565b6020604051808303816000875af1158015610bdb573d6000803e3d6000fd5b505050506040513d601f19601f82011682018060405250810190610bff91906158c5565b6001600160e01b03191614610c1357600080fd5b610c288585610c2189611cb9565b9190611cdd565b9050610c348682611d91565b6080860151600160981b1615610cd757608086015160405163e1b4af6960e01b808252916001600160a01b03169063e1b4af6990610c809033908b908b908b908b908b90600401615887565b6020604051808303816000875af1158015610c9f573d6000803e3d6000fd5b505050506040513d601f19601f82011682018060405250810190610cc391906158c5565b6001600160e01b03191614610cd757600080fd5b95945050505050565b6000610ceb82611db0565b90506000610cf883611eb1565b6000818152600960205260409020909150610ad49083611ee1565b6000848152600960205260408120610d3090600601858585611ab6565b546001600160801b031695945050505050565b60608151835114610da85760405162461bcd60e51b815260206004820152602960248201527f455243313135353a206163636f756e747320616e6420696473206c656e677468604482015268040dad2e6dac2e8c6d60bb1b606482015260840161097c565b600083516001600160401b03811115610dc357610dc3615069565b604051908082528060200260200182016040528015610dec578160200160208202803683370190505b50905060005b8451811015610e6457610e37858281518110610e1057610e106158e2565b6020026020010151858381518110610e2a57610e2a6158e2565b6020026020010151610915565b828281518110610e4957610e496158e2565b6020908102919091010152610e5d816158f8565b9050610df2565b509392505050565b60808401516000906001609d1b1615610f1057608085015160405163fe9a6f4560e01b808252916001600160a01b03169063fe9a6f4590610eb99033908a908a908a908a90600401615933565b6020604051808303816000875af1158015610ed8573d6000803e3d6000fd5b505050506040513d601f19601f82011682018060405250810190610efc91906158c5565b6001600160e01b03191614610f1057600080fd5b6000610f1b86611eb1565b9050610f25614e64565b610f906040518060a00160405280336001600160a01b03168152602001886000015160020b8152602001886020015160020b8152602001610f698960400151611f2b565b600f0b815260608a015160020b602091820152600085815260099091526040902090611f41565b9093509050610f9f8784611d91565b805115610fc957805187516001600160a01b03166000908152602081905260409020805490910190555b602081015115610ffc57602080820151888201516001600160a01b03166000908152918290526040909120805490910190555b6040810151156110425760408082015160808901516001600160a01b039081166000908152600160209081528482208c5190931682529190915291909120805490910190555b60608101511561108757606081015160808801516001600160a01b039081166000908152600160209081526040808320828d0151909416835292905220805490910190555b60808701516001609c1b161561112a5760808701516040516330b7cdef60e01b808252916001600160a01b0316906330b7cdef906110d39033908c908c908a908d908d9060040161597e565b6020604051808303816000875af11580156110f2573d6000803e3d6000fd5b505050506040513d601f19601f8201168201806040525081019061111691906158c5565b6001600160e01b0319161461112a57600080fd5b5050949350505050565b6040840151600090620f4240620fffff9091161061115157600080fd5b6060850151617fff60029190910b131561116a57600080fd5b845160208601516001600160a01b039081169116111561118957600080fd5b6111ad856040015186608001516001600160a01b031661243d90919063ffffffff16565b6111b657600080fd5b60808501516001609f1b161561126b5760808501516040516301a206c160e51b808252916001600160a01b031690633440d820906112009033908a908a908a908a906004016159c4565b6020604051808303816000875af115801561121f573d6000803e3d6000fd5b505050506040513d601f19601f8201168201806040525081019061124391906158c5565b6001600160e01b0319161461126b57604051631e048e1d60e01b815260040160405180910390fd5b600061127686611eb1565b9050600061128387611db0565b90506000611290886124be565b60008481526009602052604090209091506112ad90888484612591565b60808901519094506001609e1b161561136757608088015160405163a910f80f60e01b808252916001600160a01b03169063a910f80f906112fc9033908d908d908b908e908e90600401615a00565b6020604051808303816000875af115801561131b573d6000803e3d6000fd5b505050506040513d601f19601f8201168201806040525081019061133f91906158c5565b6001600160e01b0319161461136757604051631e048e1d60e01b815260040160405180910390fd5b505050949350505050565b6001600160a01b038116600081815260086020526040812054909161139690612654565b6001600160a01b03841660009081526008602052604090208190556113bc9082906157d4565b91506113d4836113cb84611b0e565b610a8d90615a47565b50919050565b606061141b60063381546001600160801b03908116600080516020615ec383398151915281019290925582546001600160801b031916600190920116179055565b6040516355b148ff60e11b8152339063ab6291fe906114409086908690600401615a6a565b6000604051808303816000875af115801561145f573d6000803e3d6000fd5b505050506040513d6000823e601f3d908101601f191682016040526114879190810190615a7e565b6006549091506001600160801b03166001036114c457600654600160801b90046001600160801b0316156114ba57600080fd5b60006006556109aa565b600680546001600160801b031981166001600160801b03918216600019019091161790556109aa565b600081156114fb5781611515565b6001600160a01b0383166000908152602081905260409020545b905080600080856001600160a01b03166001600160a01b03168152602001908152602001600020600082825461154b91906157d4565b9091555061156590506001600160a01b0384168583611c10565b9392505050565b6115773383836126e1565b5050565b6000611586826124be565b9050600061159383611eb1565b6000818152600960205260409020909150610ad490836127c1565b6115bb83610a8d83611b0e565b610ad4826115d1856001600160a01b031661280b565b8360405180602001604052806000815250612817565b60006109aa82612929565b60003382156116015782611628565b6001600160a01b038082166000908152600160209081526040808320938816835292905220545b91506001600160a01b0385161561163f5784611641565b805b6001600160a01b03808316600090815260016020908152604080832093891683529290529081208054929750849290919061167d9084906157d4565b90915550610e6490506001600160a01b0385168684611c10565b60006116a3858561293d565b5063f23a6e6160e01b9695505050505050565b6001600160a01b0385163314806116d257506116d285336107aa565b6117355760405162461bcd60e51b815260206004820152602e60248201527f455243313135353a2063616c6c6572206973206e6f7420746f6b656e206f776e60448201526d195c881bdc88185c1c1c9bdd995960921b606482015260840161097c565b6117428585858585612966565b5050505050565b60808401516000906001609b1b161561180e5760808501516040516315d7892d60e21b808252916001600160a01b03169063575e24b4906117969033908a908a908a908a90600401615b23565b6020604051808303816000875af11580156117b5573d6000803e3d6000fd5b505050506040513d601f19601f820116820180604052508101906117d991906158c5565b6001600160e01b0319161461180e576101a960405180604001604052806005815260200164082909090960db1b815250612b0f565b60408501516000906280000016156118b65785608001516001600160a01b0316632ab7a3e233888888886040518663ffffffff1660e01b8152600401611858959493929190615b23565b6020604051808303816000875af1158015611877573d6000803e3d6000fd5b505050506040513d601f19601f8201168201806040525081019061189b9190615b4e565b9050620f42408162ffffff16106118b157600080fd5b6118c2565b506040850151620fffff165b6000806118cd614e8c565b60006118d88a611eb1565b90506119486040518060a001604052808762ffffff1681526020018c6060015160020b81526020018b60000151151581526020018b6020015181526020018b604001516001600160a01b031681525060096000848152602001908152602001600020612b5590919063ffffffff16565b9298509095509350915061195c8a87611d91565b831561199d57836000808b60000151611979578c6020015161197c565b8c515b6001600160a01b031681526020810191909152604001600020805490910190555b82156119f65760808a01516001600160a01b031660009081526001602052604081208a518592906119d2578c602001516119d5565b8c515b6001600160a01b031681526020810191909152604001600020805490910190555b60808a01516001609a1b1615611aa95763b47b2fb160e01b6001600160e01b0319168a608001516001600160a01b031663b47b2fb1338d8d8b8e8e6040518763ffffffff1660e01b8152600401611a5296959493929190615b6b565b6020604051808303816000875af1158015611a71573d6000803e3d6000fd5b505050506040513d601f19601f82011682018060405250810190611a9591906158c5565b6001600160e01b03191614611aa957600080fd5b5050505050949350505050565b6040805160609490941b6001600160601b03191660208086019190915260e893841b60348601529190921b60378401528151601a818503018152603a9093018252825192810192909220600090815292909152902090565b600060016001607f1b03821115611b2457600080fd5b5090565b80600f0b600003611b37575050565b6000611b436006613332565b6001600160a01b038082166000908152600760209081526040808320938816835292905290812054919250611b7c600f85900b83615b96565b905080600003611bb257600680546000196001600160801b03600160801b80840482169290920181169091029116179055611be1565b81600003611be1576006805460016001600160801b03600160801b808404821692909201811690910291161790555b6001600160a01b0392831660009081526007602090815260408083209790951682529590955291909320555050565b6000611c24846001600160a01b031661335e565b15611c585760008060008085875af1905080611c5357604051633d2cec6f60e21b815260040160405180910390fd5b611cb3565b60405163a9059cbb60e01b6000528360045282602452602060006044600080895af13d15601f3d1160016000511416171691506000606052806040525080611cb357604051633c9fd93960e21b815260040160405180910390fd5b50505050565b600060096000611cc884611eb1565b81526020019081526020016000209050919050565b60038301546000906001600160801b03168103611d0d5760405163a74f97ab60e01b815260040160405180910390fd5b611d27611d1984611b0e565b611d2284611b0e565b61336b565b90508215611d5a576003840154611d4e908490600160801b906001600160801b031661337e565b60018501805490910190555b8115611565576003840154611d7f908390600160801b906001600160801b031661337e565b60028501805490910190559392505050565b8151611da190610a8d8360801c90565b6115778260200151610a8d8390565b600254600090819081906001600160a01b031615611eaa577f00000000000000000000000000000000000000000000000000000000000000005a1015611df557600080fd5b60025460405163d6ec458560e01b81526001600160a01b039091169063d6ec4585907f000000000000000000000000000000000000000000000000000000000000000090611e47908890600401615bbe565b6020604051808303818786fa93505050508015611e81575060408051601f3d908101601f19168201909252611e7e91810190615b4e565b60015b15611e9857925050610fff600c83901c8116915082165b611ea182613420565b611eaa81613420565b5050919050565b600081604051602001611ec49190615bbe565b604051602081830303815290604052805190602001209050919050565b81546001600160a01b0316600003611f0c5760405163486aa30760e01b815260040160405180910390fd5b815462ffffff909116600160b81b0262ffffff60b81b19909116179055565b80600f81900b8114611f3c57600080fd5b919050565b6000611f4b614e64565b83546001600160a01b0316600003611f765760405163486aa30760e01b815260040160405180910390fd5b611f8883602001518460400151613480565b6040805160c081018252600080825260208201819052918101829052606081018290526080810182905260a0810182905281906060860151600f0b156120ff57611fdd87876020015188606001516000613514565b6001600160801b0316602083015215158152604086015160608701516120069189916001613514565b6001600160801b031660608084019190915290151560408301528601516000600f9190910b13156120be57600061204087608001516135ee565b9050806001600160801b031682602001516001600160801b0316111561207f57866020015160405163b8e3c38560e01b815260040161097c9190615408565b806001600160801b031682606001516001600160801b031611156120bc57866040015160405163b8e3c38560e01b815260040161097c9190615408565b505b8051156120dd57602086015160808701516120dd9160058a019161361c565b8060400151156120ff57604086015160808701516120ff9160058a019161361c565b61211287876020015188604001516136ae565b60a08301526080820152604080518082019091526002815261105360f21b60208281019190915287519088015161216292919061214e90615bcc565b62ffffff16896040015162ffffff16613765565b61217481608001518260a001516137ae565b6060860151608082015160a0830151885160208a015160408b01516121ac959493926121a49260068f0192611ab6565b9291906137f3565b809350819450505060008660600151600f0b12156121f1578051156121d9576121d987876020015161392a565b8060400151156121f1576121f187876040015161392a565b506060850151600f0b1561238f5760208501518654600291820b600160a01b90910490910b12156122655761225e8461225961225261224d6122368a6020015161394e565b6122438b6040015161394e565b8b60600151613c66565b611f2b565b600061336b565b613ca5565b935061238f565b60408501518654600291820b600160a01b90910490910b121561235957855460408601516122d9918691612259916122ae9161224d916001600160a01b0316906122439061394e565b611d2261224d6122c18b6020015161394e565b8c5460608d01516001600160a01b0390911690613ccf565b935060008560600151600f0b1261230c576060850151600387015461230791906001600160801b0316615be5565b612332565b846060015161231a90615a47565b600387015461233291906001600160801b0316615c0c565b6003870180546001600160801b0319166001600160801b039290921691909117905561238f565b61238c846122596000611d2261224d6123758b6020015161394e565b6123828c6040015161394e565b8c60600151613ccf565b93505b60008560600151600f0b1280156123b157508554600160d01b9004610fff1615155b15612414576123c08685613cfe565b9250612411846122596123d68660000151611b0e565b6123e38760400151611b0e565b6123ed9190615c2c565b6123fa8760200151611b0e565b6124078860600151611b0e565b611d229190615c2c565b93505b6124328461242d61242485611b0e565b611d2285611b0e565b613ec7565b935050509250929050565b60006001600160a01b0383161561249557600160981b836001600160a01b031610158061246e575062800000821615155b8061247d575062400000821615155b8061249057506220000082161515611565565b611565565b6280000082161580156124ab5750624000008216155b8015611565575050622000001615919050565b60808101516000906001600160a01b031615611f3c5781608001516001600160a01b0316635ae4ce58836040518263ffffffff1660e01b81526004016125049190615bbe565b602060405180830381865afa92505050801561253d575060408051601f3d908101601f1916820190925261253a91810190615b4e565b60015b15611f3c576040830151600090624000001661255a57600061255f565b62fff0005b6040850151909150600090622000001661257a57600061257e565b610fff5b61ffff1691909117919091169392505050565b83546000906001600160a01b0316156125bd57604051637983c05160e01b815260040160405180910390fd5b6125c684613ef4565b604080516080810182526001600160a01b0396909616808752600283900b602088015262ffffff958616918701829052938516606090960186905286546001600160b81b031916909317600160a01b948216949094029390931765ffffffffffff60b81b1916600160b81b90920262ffffff60d01b191691909117600160d01b909302929092179092555090565b6000612668826001600160a01b031661335e565b15612674575047919050565b6040516370a0823160e01b81526001600160a01b038316906370a08231906126a09030906004016155c0565b602060405180830381865afa1580156126bd573d6000803e3d6000fd5b505050506040513d601f19601f820116820180604052508101906109aa9190615c59565b816001600160a01b0316836001600160a01b0316036127545760405162461bcd60e51b815260206004820152602960248201527f455243313135353a2073657474696e6720617070726f76616c20737461747573604482015268103337b91039b2b63360b91b606482015260840161097c565b6001600160a01b03838116600081815260046020908152604080832094871680845294825291829020805460ff191686151590811790915591519182527f17307eab39ab6107e8899845ad3d59bd9653f200f220920489ca2b5937696c31910160405180910390a3505050565b81546001600160a01b03166000036127ec5760405163486aa30760e01b815260040160405180910390fd5b815462ffffff909116600160d01b0262ffffff60d01b19909116179055565b6001600160a01b031690565b6001600160a01b0384166128775760405162461bcd60e51b815260206004820152602160248201527f455243313135353a206d696e7420746f20746865207a65726f206164647265736044820152607360f81b606482015260840161097c565b336000612883856141c6565b90506000612890856141c6565b905060008681526003602090815260408083206001600160a01b038b168452909152812080548792906128c4908490615c72565b92505081905550866001600160a01b031660006001600160a01b0316846001600160a01b0316600080516020615ea38339815191528989604051612909929190615c85565b60405180910390a461292083600089898989614219565b50505050505050565b600080516020615ec3833981519152015490565b61295930612953846001600160a01b031661280b565b836143b5565b611577826113cb83611b0e565b6001600160a01b0384166129ca5760405162461bcd60e51b815260206004820152602560248201527f455243313135353a207472616e7366657220746f20746865207a65726f206164604482015264647265737360d81b606482015260840161097c565b3360006129d6856141c6565b905060006129e3856141c6565b905060008681526003602090815260408083206001600160a01b038c16845290915290205485811015612a6b5760405162461bcd60e51b815260206004820152602a60248201527f455243313135353a20696e73756666696369656e742062616c616e636520666f60448201526939103a3930b739b332b960b11b606482015260840161097c565b60008781526003602090815260408083206001600160a01b038d8116855292528083208985039055908a16825281208054889290612aaa908490615c72565b92505081905550876001600160a01b0316896001600160a01b0316856001600160a01b0316600080516020615ea38339815191528a8a604051612aee929190615c85565b60405180910390a4612b04848a8a8a8a8a614219565b505050505050505050565b612b5281604051602401612b239190615056565b60408051601f198184030181529190526020810180516001600160e01b031663104c13eb60e21b179052614525565b50565b6000806000612b62614e8c565b8460600151600003612b875760405163be8b850760e01b815260040160405180910390fd5b6040805160808101825287546001600160a01b038116808352600160a01b820460020b602084015262ffffff600160b81b8304811694840194909452600160d01b909104909216606082015290600003612bf45760405163486aa30760e01b815260040160405180910390fd5b856040015115612c875780600001516001600160a01b031686608001516001600160a01b031610612c415780516080870151604051637c9c6e8f60e01b815261097c929190600401615c93565b6401000276a36001600160a01b031686608001516001600160a01b031611612c82578560800151604051639e4d7cc760e01b815260040161097c91906155c0565b612d1a565b80600001516001600160a01b031686608001516001600160a01b031611612cca5780516080870151604051637c9c6e8f60e01b815261097c929190600401615c93565b73fffd8963efd1fc6a506488495d951d5263988d266001600160a01b031686608001516001600160a01b031610612d1a578560800151604051639e4d7cc760e01b815260040161097c91906155c0565b6040805160608101825260038901546001600160801b0316815290870151600091906020820190612d5557604084015160121c603f16612d6c565b604084810151600c1c610fff16612d6c9190615cc3565b61ffff1681526020018860400151612d8e57606084015160121c603f16612da7565b6060840151604090600c1c610fff16612da79190615cc3565b61ffff16815250905060008088606001511390506040518060c00160405280896060015181526020016000815260200184600001516001600160a01b03168152602001846020015160020b81526020018960400151612e0a578a60020154612e10565b8a600101545b815283516001600160801b03166020918201526040805160e0810182526000808252928101839052908101829052606081018290526080810182905260a0810182905260c08101919091529094505b845115801590612e89575088608001516001600160a01b031685604001516001600160a01b031614155b15613223576040808601516001600160a01b03168252606086015160208b0151918b0151612ebc9260058e01929161452e565b1515604083015260020b60208201819052620d89e7191315612ee757620d89e7196020820152612f1b565b612ef4620d89e719615bcc565b60020b816020015160020b1315612f1b57612f12620d89e719615bcc565b60020b60208201525b612f28816020015161394e565b6001600160a01b03166060820152604080860151908a0151612fab9190612f6b578a608001516001600160a01b031683606001516001600160a01b031611612f89565b8a608001516001600160a01b031683606001516001600160a01b0316105b612f97578260600151612f9d565b8a608001515b60a088015188518d51614670565b60c085015260a084015260808301526001600160a01b03166040860152811561300d57612fe18160c00151826080015101614862565b855103855260a0810151612ff490614862565b85602001516130039190615ce4565b6020860152613050565b61301a8160a00151614862565b855101855260c0810151608082015161303b9161303691615c72565b614862565b856020015161304a9190615b96565b60208601525b602083015161ffff161561308a576000836020015161ffff168260c001516130789190615d04565b60c08301805182900390529790970196505b604083015161ffff16156130c4576000836040015161ffff168260c001516130b29190615d04565b60c08301805182900390529690960195505b60a08501516001600160801b031615613103576130f78160c00151600160801b8760a001516001600160801b031661337e565b60808601805190910190525b80606001516001600160a01b031685604001516001600160a01b0316036131f0578060400151156131c757600061316f8b83602001518c6040015161314c578d60010154613152565b88608001515b8d60400151613165578960800151614878565b8e60020154614878565b905089604001511561317f576000035b600081600f0b1261319f57808660a0015161319a9190615be5565b6131b7565b6131a881615a47565b8660a001516131b79190615c0c565b6001600160801b031660a0870152505b88604001516131da5780602001516131e3565b60018160200151035b60020b6060860152612e5f565b80600001516001600160a01b031685604001516001600160a01b03161461321e576131e38560400151613ef4565b612e5f565b604085015160608601518b546001600160b81b031916600160a01b62ffffff909216919091026001600160a01b031916176001600160a01b03909116178a5560a085015183516001600160801b039182169116146132a25760a085015160038b0180546001600160801b0319166001600160801b039092169190911790555b8860400151156132bb57608085015160018b01556132c6565b608085015160028b01555b81151589604001511515036132ff576132f86132eb86600001518b6060015103611f2b565b611d228760200151611f2b565b9750613325565b61332261330f8660200151611f2b565b611d2287600001518c6060015103611f2b565b97505b5050505092959194509250565b80546000906109aa90613350906001906001600160801b0316615c0c565b6001600160801b0316612929565b6001600160a01b03161590565b6001600160801b031660809190911b1790565b600083830281600019858709828110838203039150508084116133a057600080fd5b806000036133b357508290049050611565565b6000848688096000868103871696879004966002600389028118808a02820302808a02820302808a02820302808a02820302808a02820302808a02909103029181900381900460010186841190950394909402919094039290920491909117919091029150509392505050565b61ffff811615612b52576000613437604083615cc3565b90506103ff600683901c1661ffff8216158015906134595750600461ffff8316105b80613476575061ffff8116158015906134765750600461ffff8216105b15610ad457600080fd5b8060020b8260020b126134b45760405163c4433ed560e01b8152600283810b600483015282900b602482015260440161097c565b620d89e719600283900b12156134df578160405163d5e2f7ab60e01b815260040161097c9190615408565b6134ec620d89e719615bcc565b60020b8160020b1315611577578060405163035aeeff60e31b815260040161097c9190615408565b600283900b6000908152600485016020526040812080548291906001600160801b0381169060801c600f87900b8413613556576135518783615be5565b613569565b61355f87615a47565b6135699083615c0c565b6001600160801b03808216159084168015919091141596509094506000036135b7578854600160a01b9004600290810b9089900b136135b7576001808a0154908401556002808a0154908401555b6000866135cd576135c88883615c2c565b6135d7565b6135d78883615d18565b90508060801b851784555050505094509492505050565b6000621b13d08201600290810b9083900b6001600160801b03028161361557613615615cad565b0492915050565b8060020b8260020b8161363157613631615cad565b0760020b1561366157604051636a6c79f360e11b8152600283810b600483015282900b602482015260440161097c565b6000806136828360020b8560020b8161367c5761367c615cad565b056148b4565b600191820b60009081526020979097526040909620805460ff9097169190911b90951890945550505050565b600282810b600081815260048601602052604080822085850b835290822087549294859492939192600160a01b909204900b9081121561370757816001015483600101540394508160020154836002015403935061375a565b8560020b8160020b1261373357826001015482600101540394508260020154826002015403935061375a565b81600101548360010154896001015403039450816002015483600201548960020154030393505b505050935093915050565b611cb38484848460405160240161377f9493929190615d45565b60408051601f198184030181529190526020810180516001600160e01b0316637c7a8d8f60e11b179052614525565b61157782826040516024016137c4929190615c85565b60408051601f198184030181529190526020810180516001600160e01b0316637b3338ad60e11b179052614525565b6040805160608101825285546001600160801b0316815260018601546020820152600286015491810191909152600090819081600f87900b81036138645781516001600160801b031660000361385c57604051632bbfae4960e21b815260040160405180910390fd5b508051613899565b600087600f0b1261388157815161387c908890615be5565b613896565b61388a87615a47565b82516138969190615c0c565b90505b6138a78683602001516137ae565b6138c98260200151870383600001516001600160801b0316600160801b61337e565b93506138ed8260400151860383600001516001600160801b0316600160801b61337e565b925086600f0b6000146139145787546001600160801b0319166001600160801b0382161788555b5050600186019390935560029094015591929050565b600290810b6000908152600490920160205260408220828155600181018390550155565b60008060008360020b12613965578260020b61396d565b8260020b6000035b9050620d89e8811115613993576040516333a3bdff60e21b815260040160405180910390fd5b6000816001166000036139aa57600160801b6139bc565b6ffffcb933bd6fad37aa2d162d1a5940015b6001600160881b0316905060028216156139e6576ffff97272373d413259a46990580e213a0260801c5b6004821615613a05576ffff2e50f5f656932ef12357cf3c7fdcc0260801c5b6008821615613a24576fffe5caca7e10e4e61c3624eaa0941cd00260801c5b6010821615613a43576fffcb9843d60f6159c9db58835c9266440260801c5b6020821615613a62576fff973b41fa98c081472e6896dfb254c00260801c5b6040821615613a81576fff2ea16466c96a3843ec78b326b528610260801c5b6080821615613aa0576ffe5dee046a99a2a811c461f1969c30530260801c5b610100821615613ac0576ffcbe86c7900a88aedcffc83b479aa3a40260801c5b610200821615613ae0576ff987a7253ac413176f2b074cf7815e540260801c5b610400821615613b00576ff3392b0822b70005940c7a398e4b70f30260801c5b610800821615613b20576fe7159475a2c29b7443b29c7fa6e889d90260801c5b611000821615613b40576fd097f3bdfd2022b8845ad8f792aa58250260801c5b612000821615613b60576fa9f746462d870fdf8a65dc1f90e061e50260801c5b614000821615613b80576f70d869a156d2a1b890bb3df62baf32f70260801c5b618000821615613ba0576f31be135f97d08fd981231505542fcfa60260801c5b62010000821615613bc1576f09aa508b5b7a84e1c677de54f3e99bc90260801c5b62020000821615613be1576e5d6af8dedb81196699c329225ee6040260801c5b62040000821615613c00576d2216e584f5fa1ea926041bedfe980260801c5b62080000821615613c1d576b048a170391f7dc42444e8fa20260801c5b60008460020b1315613c3e578060001981613c3a57613c3a615cad565b0490505b600160201b810615613c51576001613c54565b60005b60ff16602082901c0192505050919050565b60008082600f0b12613c8757613c8261303685858560016148c6565b610a78565b613c9a61303685858560000360006148c6565b600003949350505050565b6000611565613cb48360801c90565b613cbe8560801c90565b613cc89190615c2c565b8385612407565b60008082600f0b12613ceb57613c82613036858585600161497d565b613c9a613036858585600003600061497d565b613d06614e64565b6000613d128360801c90565b6040805160808101825286546001600160a01b0381168252600160a01b810460020b602083015262ffffff600160b81b82048116838501819052600160d01b9092049081166060840181905294955087949293600091610fff16613d769190615cc3565b9050603f600684901c166000613d916040610fff8616615cc3565b9050603f600685901c166000600f8a900b128015613db3575060008461ffff16115b15613ddf5761ffff8416613dc68a615a47565b613dd09190615d7d565b6001600160801b031660408b01525b600088600f0b128015613df6575060008361ffff16115b15613e225761ffff8316613e0989615a47565b613e139190615d7d565b6001600160801b031660608b01525b60008261ffff16118015613e3a575060008a60400151115b15613e6b578161ffff168a60400151613e539190615d04565b808b5260408b018051613e679083906157d4565b9052505b60008161ffff16118015613e83575060008a60600151115b15613eb8578061ffff168a60600151613e9c9190615d04565b60208b0181905260608b018051613eb49083906157d4565b9052505b50505050505050505092915050565b6000611565613ed68360801c90565b613ee08560801c90565b613eea9190615d18565b611d228486615d18565b60006401000276a36001600160a01b0383161080613f2f575073fffd8963efd1fc6a506488495d951d5263988d266001600160a01b03831610155b15613f4d5760405163015680db60e11b815260040160405180910390fd5b600160201b600160c01b03602083901b166001600160801b03811160071b81811c6001600160401b03811160061b90811c63ffffffff811160051b90811c61ffff811160041b90811c60ff8111600390811b91821c600f811160021b90811c918211600190811b92831c97908811961790941790921717909117171760808110613fdf57607f810383901c9150613fe9565b80607f0383901b91505b908002607f81811c60ff83811c9190911c800280831c81831c1c800280841c81841c1c800280851c81851c1c800280861c81861c1c800280871c81871c1c800280881c81881c1c800280891c81891c1c8002808a1c818a1c1c8002808b1c818b1c1c8002808c1c818c1c1c8002808d1c818d1c1c8002808e1c9c81901c9c909c1c80029c8d901c9e9d607f198f0160401b60c09190911c6001603f1b161760c19b909b1c6001603e1b169a909a1760c29990991c6001603d1b169890981760c39790971c6001603c1b169690961760c49590951c6001603b1b169490941760c59390931c6001603a1b169290921760c69190911c600160391b161760c79190911c600160381b161760c89190911c600160371b161760c99190911c600160361b161760ca9190911c600160351b161760cb9190911c600160341b161760cc9190911c600160331b161760cd9190911c600160321b1617693627a301d71055774c8581026f028f6481ab7f045a5af012a19d003aa9198101608090811d906fdb2df09e81959a81455e260799a0632f8301901d600281810b9083900b146141b757886001600160a01b031661419c8261394e565b6001600160a01b031611156141b157816141b9565b806141b9565b815b9998505050505050505050565b60408051600180825281830190925260609160009190602080830190803683370190505090508281600081518110614200576142006158e2565b602090810291909101015292915050565b505050505050565b6001600160a01b0384163b156142115760405163f23a6e6160e01b81526001600160a01b0385169063f23a6e619061425d9089908990889088908890600401615da3565b6020604051808303816000875af1925050508015614298575060408051601f3d908101601f19168201909252614295918101906158c5565b60015b614344576142a4615ddd565b806308c379a0036142dd57506142b8615df9565b806142c357506142df565b8060405162461bcd60e51b815260040161097c9190615056565b505b60405162461bcd60e51b815260206004820152603460248201527f455243313135353a207472616e7366657220746f206e6f6e2d455243313135356044820152732932b1b2b4bb32b91034b6b83632b6b2b73a32b960611b606482015260840161097c565b6001600160e01b0319811663f23a6e6160e01b146129205760405162461bcd60e51b815260206004820152602860248201527f455243313135353a204552433131353552656365697665722072656a656374656044820152676420746f6b656e7360c01b606482015260840161097c565b6001600160a01b0383166144175760405162461bcd60e51b815260206004820152602360248201527f455243313135353a206275726e2066726f6d20746865207a65726f206164647260448201526265737360e81b606482015260840161097c565b336000614423846141c6565b90506000614430846141c6565b6040805160208082018352600091829052888252600381528282206001600160a01b038b16835290522054909150848110156144ba5760405162461bcd60e51b8152602060048201526024808201527f455243313135353a206275726e20616d6f756e7420657863656564732062616c604482015263616e636560e01b606482015260840161097c565b60008681526003602090815260408083206001600160a01b03808c1680865291909352818420898603905590519091871690600080516020615ea383398151915290614509908b908b90615c85565b60405180910390a4604080516020810190915260009052612920565b612b52816149fb565b60008060008460020b8660020b8161454857614548615cad565b05905060008660020b12801561457557508460020b8660020b8161456e5761456e615cad565b0760020b15155b1561457f57600019015b83156145f257600080614591836148b4565b600182810b600090815260208d9052604090205460ff83169190911b800160001901908116801515975092945090925090856145d457888360ff168603026145e7565b886145de82614a1c565b840360ff168603025b965050505050614666565b600080614601836001016148b4565b600182810b600090815260208d9052604090205460ff83169190911b60001901199081168015159750929450909250908561464957888360ff0360ff1686600101010261465f565b888361465483614ab6565b0360ff168660010101025b9650505050505b5094509492505050565b60008080806001600160a01b03808916908a1610158187128015906146f55760006146a98989620f42400362ffffff16620f424061337e565b9050826146c2576146bd8c8c8c600161497d565b6146cf565b6146cf8b8d8c60016148c6565b95508581106146e0578a96506146ef565b6146ec8c8b8386614b9f565b96505b5061473f565b8161470c576147078b8b8b60006148c6565b614719565b6147198a8c8b600061497d565b935083886000031061472d5789955061473f565b61473c8b8a8a60000385614beb565b95505b6001600160a01b038a81169087161482156147a25780801561475e5750815b6147745761476f878d8c60016148c6565b614776565b855b9550808015614783575081155b61479957614794878d8c600061497d565b61479b565b845b94506147ec565b8080156147ac5750815b6147c2576147bd8c888c600161497d565b6147c4565b855b95508080156147d1575081155b6147e7576147e28c888c60006148c6565b6147e9565b845b94505b811580156147fc57508860000385115b15614808578860000394505b81801561482757508a6001600160a01b0316876001600160a01b031614155b15614836578589039350614853565b614850868962ffffff168a620f42400362ffffff16614c37565b93505b50505095509550955095915050565b60006001600160ff1b03821115611b2457600080fd5b600292830b600090815260049094016020526040909320600181018054909203909155908101805490920390915554600160801b9004600f0b90565b60020b600881901d9161010090910790565b6000836001600160a01b0316856001600160a01b031611156148e6579293925b600160601b600160e01b03606084901b166001600160a01b03868603811690871661491057600080fd5b8361494657866001600160a01b03166149338383896001600160a01b031661337e565b8161494057614940615cad565b04614972565b61497261495d8383896001600160a01b0316614c37565b886001600160a01b0316808204910615150190565b979650505050505050565b6000836001600160a01b0316856001600160a01b0316111561499d579293925b816149d1576149cc6001600160801b0384166149b98787615e82565b6001600160a01b0316600160601b61337e565b610cd7565b610cd76001600160801b0384166149e88787615e82565b6001600160a01b0316600160601b614c37565b60006a636f6e736f6c652e6c6f679050600080835160208501845afa505050565b6000808211614a2a57600080fd5b600160801b8210614a3d57608091821c91015b600160401b8210614a5057604091821c91015b600160201b8210614a6357602091821c91015b620100008210614a7557601091821c91015b6101008210614a8657600891821c91015b60108210614a9657600491821c91015b60048210614aa657600291821c91015b60028210611f3c57600101919050565b6000808211614ac457600080fd5b5060ff6001600160801b03821615614adf57607f1901614ae7565b608082901c91505b6001600160401b03821615614aff57603f1901614b07565b604082901c91505b63ffffffff821615614b1c57601f1901614b24565b602082901c91505b61ffff821615614b3757600f1901614b3f565b601082901c91505b60ff821615614b515760071901614b59565b600882901c91505b600f821615614b6b5760031901614b73565b600482901c91505b6003821615614b855760011901614b8d565b600282901c91505b6001821615611f3c5760001901919050565b600080856001600160a01b031611614bb657600080fd5b6000846001600160801b031611614bcc57600080fd5b81614bde576149cc8585856001614c77565b610cd78585856001614d5e565b600080856001600160a01b031611614c0257600080fd5b6000846001600160801b031611614c1857600080fd5b81614c2a576149cc8585856000614d5e565b610cd78585856000614c77565b6000614c4484848461337e565b905060008280614c5657614c56615cad565b8486091115611565576000198110614c6d57600080fd5b6001019392505050565b60008115614ce95760006001600160a01b03841115614cad57614ca884600160601b876001600160801b031661337e565b614cc4565b614cc46001600160801b038616606086901b615d04565b9050614ce1614cdc826001600160a01b038916615c72565b614e4e565b915050610a78565b60006001600160a01b03841115614d1757614d1284600160601b876001600160801b0316614c37565b614d34565b614d34606085901b6001600160801b038716808204910615150190565b905080866001600160a01b031611614d4b57600080fd5b614ce1816001600160a01b0388166157d4565b600082600003614d6f575083610a78565b600160601b600160e01b03606085901b168215614e01576001600160a01b03861684810290858281614da357614da3615cad565b0403614dd357818101828110614dd157614dc783896001600160a01b031683614c37565b9350505050610a78565b505b50614ce18185614dec6001600160a01b038a1683615d04565b614df69190615c72565b808204910615150190565b6001600160a01b03861684810290858281614e1e57614e1e615cad565b04148015614e2b57508082115b614e3457600080fd5b808203614dc7614cdc846001600160a01b038b1684614c37565b806001600160a01b0381168114611f3c57600080fd5b6040518060800160405280600081526020016000815260200160008152602001600081525090565b6040518060c00160405280600081526020016000815260200160006001600160a01b03168152602001600060020b81526020016000815260200160006001600160801b031681525090565b6001600160a01b0381168114612b5257600080fd5b60008060408385031215614eff57600080fd5b8235614f0a81614ed7565b946020939093013593505050565b6001600160e01b031981168114612b5257600080fd5b600060208284031215614f4057600080fd5b813561156581614f18565b8035600281900b8114611f3c57600080fd5b60008060008060808587031215614f7357600080fd5b843593506020850135614f8581614ed7565b9250614f9360408601614f4b565b9150614fa160608601614f4b565b905092959194509250565b600080600060608486031215614fc157600080fd5b8335614fcc81614ed7565b92506020840135614fdc81614ed7565b929592945050506040919091013590565b600060208284031215614fff57600080fd5b5035919050565b60005b83811015615021578181015183820152602001615009565b50506000910152565b60008151808452615042816020860160208601615006565b601f01601f19169290920160200192915050565b602081526000611565602083018461502a565b634e487b7160e01b600052604160045260246000fd5b606081016001600160401b038111828210171561509e5761509e615069565b60405250565b601f8201601f191681016001600160401b03811182821017156150c9576150c9615069565b6040525050565b62ffffff81168114612b5257600080fd5b600060a082840312156150f357600080fd5b60405160a081016001600160401b038111828210171561511557615115615069565b604052905080823561512681614ed7565b8152602083013561513681614ed7565b60208201526040830135615149816150d0565b604082015261515a60608401614f4b565b6060820152608083013561516d81614ed7565b6080919091015292915050565b60008083601f84011261518c57600080fd5b5081356001600160401b038111156151a357600080fd5b6020830191508360208285010111156151bb57600080fd5b9250929050565b600080600080600061010086880312156151db57600080fd5b6151e587876150e1565b945060a0860135935060c0860135925060e08601356001600160401b0381111561520e57600080fd5b61521a8882890161517a565b969995985093965092949392505050565b600060a0828403121561523d57600080fd5b61156583836150e1565b60006020828403121561525957600080fd5b813561156581614ed7565b60006001600160401b0382111561527d5761527d615069565b5060051b60200190565b600082601f83011261529857600080fd5b813560206152a582615264565b6040516152b282826150a4565b83815260059390931b85018201928281019150868411156152d257600080fd5b8286015b848110156152ed57803583529183019183016152d6565b509695505050505050565b6000806040838503121561530b57600080fd5b82356001600160401b038082111561532257600080fd5b818501915085601f83011261533657600080fd5b8135602061534382615264565b60405161535082826150a4565b83815260059390931b850182019282810191508984111561537057600080fd5b948201945b8386101561539757853561538881614ed7565b82529482019490820190615375565b965050860135925050808211156153ad57600080fd5b506153ba85828601615287565b9150509250929050565b6020808252825182820181905260009190848201906040850190845b818110156153fc578351835292840192918401916001016153e0565b50909695505050505050565b60029190910b815260200190565b60008060008084860361012081121561542e57600080fd5b61543887876150e1565b94506060609f198201121561544c57600080fd5b506040516154598161507f565b61546560a08701614f4b565b815261547360c08701614f4b565b602082015260e0860135604082015292506101008501356001600160401b0381111561549e57600080fd5b6154aa8782880161517a565b95989497509550505050565b60008060008060e085870312156154cc57600080fd5b6154d686866150e1565b935060a08501356154e681614ed7565b925060c08501356001600160401b0381111561549e57600080fd5b6000806020838503121561551457600080fd5b82356001600160401b0381111561552a57600080fd5b6155368582860161517a565b90969095509350505050565b80358015158114611f3c57600080fd5b6000806040838503121561556557600080fd5b823561557081614ed7565b915061557e60208401615542565b90509250929050565b6000806040838503121561559a57600080fd5b82356155a581614ed7565b915060208301356155b581614ed7565b809150509250929050565b6001600160a01b0391909116815260200190565b60008060008060008060a087890312156155ed57600080fd5b86356155f881614ed7565b9550602087013561560881614ed7565b9450604087013593506060870135925060808701356001600160401b0381111561563157600080fd5b61563d89828a0161517a565b979a9699509497509295939492505050565b60006001600160401b0382111561566857615668615069565b50601f01601f191660200190565b600080600080600060a0868803121561568e57600080fd5b853561569981614ed7565b945060208601356156a981614ed7565b9350604086013592506060860135915060808601356001600160401b038111156156d257600080fd5b8601601f810188136156e357600080fd5b80356156ee8161564f565b6040516156fb82826150a4565b8281528a602084860101111561571057600080fd5b82602085016020830137600060208483010152809450505050509295509295909350565b60008060008084860361012081121561574c57600080fd5b61575687876150e1565b94506060609f198201121561576a57600080fd5b506040516157778161507f565b61578360a08701615542565b815260c0860135602082015260e086013561579d81614ed7565b604082015292506101008501356001600160401b0381111561549e57600080fd5b634e487b7160e01b600052601160045260246000fd5b818103818111156109aa576109aa6157be565b600181811c908216806157fb57607f821691505b6020821081036113d457634e487b7160e01b600052602260045260246000fd5b80516001600160a01b03908116835260208083015182169084015260408083015162ffffff169084015260608083015160020b9084015260809182015116910152565b81835281816020850137506000828201602090810191909152601f909101601f19169091010190565b6001600160a01b038716815260006101206158a5602084018961581b565b8660c08401528560e0840152806101008401526141b9818401858761585e565b6000602082840312156158d757600080fd5b815161156581614f18565b634e487b7160e01b600052603260045260246000fd5b60006001820161590a5761590a6157be565b5060010190565b805160020b8252602081015160020b6020830152604081015160408301525050565b6001600160a01b03861681526000610140615951602084018861581b565b61595e60c0840187615911565b80610120840152615972818401858761585e565b98975050505050505050565b6001600160a01b0387168152600061016061599c602084018961581b565b6159a960c0840188615911565b85610120840152806101408401526141b9818401858761585e565b6001600160a01b038681168252600090610100906159e5602085018961581b565b861660c084015260e08301819052615972818401858761585e565b6001600160a01b03878116825260009061012090615a21602085018a61581b565b80881660c0850152508560020b60e0840152806101008401526141b9818401858761585e565b6000600f82900b6001607f1b8101615a6157615a616157be565b60000392915050565b602081526000610a7860208301848661585e565b600060208284031215615a9057600080fd5b81516001600160401b03811115615aa657600080fd5b8201601f81018413615ab757600080fd5b8051615ac28161564f565b604051615acf82826150a4565b828152866020848601011115615ae457600080fd5b615af5836020830160208701615006565b9695505050505050565b805115158252602080820151908301526040908101516001600160a01b0316910152565b6001600160a01b03861681526000610140615b41602084018861581b565b61595e60c0840187615aff565b600060208284031215615b6057600080fd5b8151611565816150d0565b6001600160a01b03871681526000610160615b89602084018961581b565b6159a960c0840188615aff565b8082018281126000831280158216821582161715615bb657615bb66157be565b505092915050565b60a081016109aa828461581b565b60008160020b627fffff198103615a6157615a616157be565b6001600160801b03818116838216019080821115615c0557615c056157be565b5092915050565b6001600160801b03828116828216039080821115615c0557615c056157be565b600f81810b9083900b0160016001607f1b03811360016001607f1b0319821217156109aa576109aa6157be565b600060208284031215615c6b57600080fd5b5051919050565b808201808211156109aa576109aa6157be565b918252602082015260400190565b6001600160a01b0392831681529116602082015260400190565b634e487b7160e01b600052601260045260246000fd5b600061ffff80841680615cd857615cd8615cad565b92169190910692915050565b8181036000831280158383131683831282161715615c0557615c056157be565b600082615d1357615d13615cad565b500490565b600f82810b9082900b0360016001607f1b0319811260016001607f1b03821317156109aa576109aa6157be565b608081526000615d58608083018761502a565b6001600160a01b03959095166020830152506040810192909252606090910152919050565b60006001600160801b0383811680615d9757615d97615cad565b92169190910492915050565b6001600160a01b03868116825285166020820152604081018490526060810183905260a0608082018190526000906149729083018461502a565b600060033d1115615df65760046000803e5060005160e01c5b90565b600060443d1015615e075790565b6040516003193d81016004833e81513d6001600160401b038083116024840183101715615e3657505050505090565b8285019150815181811115615e4e5750505050505090565b843d8701016020828501011115615e685750505050505090565b615e77602082860101876150a4565b509095945050505050565b6001600160a01b03828116828216039080821115615c0557615c056157be56fec3d58168c5ae7397731d063d5bbf3d657854427343f4c083240f7aacaa2d0f62760a9a962ae3d184e99c0483cf5684fb3170f47116ca4f445c50209da4f4f906a264697066735822122089418c4eb0cdd0285ac4648f2de407dc7fd03db4664ccdc8956f0008ec8db92d64736f6c63430008140033",
  "devdoc": {
    "errors": {
      "PriceLimitAlreadyExceeded(uint160,uint160)": [
        {
          "params": {
            "sqrtPriceCurrentX96": "The invalid, already surpassed sqrtPriceLimitX96",
            "sqrtPriceLimitX96": "The surpassed price limit"
          }
        }
      ],
      "PriceLimitOutOfBounds(uint160)": [
        {
          "params": {
            "sqrtPriceLimitX96": "The invalid, out-of-bounds sqrtPriceLimitX96"
          }
        }
      ],
      "TickLowerOutOfBounds(int24)": [
        {
          "params": {
            "tickLower": "The invalid tickLower"
          }
        }
      ],
      "TickMisaligned(int24,int24)": [
        {
          "params": {
            "tick": "the invalid tick",
            "tickSpacing": "The tick spacing of the pool"
          }
        }
      ],
      "TickUpperOutOfBounds(int24)": [
        {
          "params": {
            "tickUpper": "The invalid tickUpper"
          }
        }
      ],
      "TicksMisordered(int24,int24)": [
        {
          "params": {
            "tickLower": "The invalid tickLower",
            "tickUpper": "The invalid tickUpper"
          }
        }
      ]
    },
    "events": {
      "ApprovalForAll(address,address,bool)": {
        "details": "Emitted when `account` grants or revokes permission to `operator` to transfer their tokens, according to `approved`."
      },
      "TransferBatch(address,address,address,uint256[],uint256[])": {
        "details": "Equivalent to multiple {TransferSingle} events, where `operator`, `from` and `to` are the same for all transfers."
      },
      "TransferSingle(address,address,address,uint256,uint256)": {
        "details": "Emitted when `value` tokens of token type `id` are transferred from `from` to `to` by `operator`."
      },
      "URI(string,uint256)": {
        "details": "Emitted when the URI for token type `id` changes to `value`, if it is a non-programmatic URI. If an {URI} event was emitted for `id`, the standard https://eips.ethereum.org/EIPS/eip-1155#metadata-extensions[guarantees] that `value` will equal the value returned by {IERC1155MetadataURI-uri}."
      }
    },
    "kind": "dev",
    "methods": {
      "balanceOf(address,uint256)": {
        "details": "See {IERC1155-balanceOf}. Requirements: - `account` cannot be the zero address."
      },
      "balanceOfBatch(address[],uint256[])": {
        "details": "See {IERC1155-balanceOfBatch}. Requirements: - `accounts` and `ids` must have the same length."
      },
      "extsload(bytes32)": {
        "params": {
          "slot": "Key of slot to sload"
        },
        "returns": {
          "value": "The value of the slot as bytes32"
        }
      },
      "isApprovedForAll(address,address)": {
        "details": "See {IERC1155-isApprovedForAll}."
      },
      "lock(bytes)": {
        "params": {
          "data": "Any data to pass to the callback, via `ILockCallback(msg.sender).lockCallback(data)`"
        },
        "returns": {
          "result": "The data returned by the call to `ILockCallback(msg.sender).lockCallback(data)`"
        }
      },
      "safeTransferFrom(address,address,uint256,uint256,bytes)": {
        "details": "See {IERC1155-safeTransferFrom}."
      },
      "setApprovalForAll(address,bool)": {
        "details": "See {IERC1155-setApprovalForAll}."
      },
      "supportsInterface(bytes4)": {
        "details": "See {IERC165-supportsInterface}."
      },
      "take(address,address,uint256)": {
        "details": "Can also be used as a mechanism for _free_ flash loans"
      },
      "uri(uint256)": {
        "details": "See {IERC1155MetadataURI-uri}. This implementation returns the same URI for *all* token types. It relies on the token type ID substitution mechanism https://eips.ethereum.org/EIPS/eip-1155#metadata[defined in the EIP]. Clients calling this function must replace the `\\{id\\}` substring with the actual token type ID."
      }
    },
    "stateVariables": {
      "currencyDelta": {
        "details": "Represents the currencies due/owed to each locker. Must all net to zero when the last lock is released."
      }
    },
    "version": 1
  },
  "userdoc": {
    "errors": {
      "CannotUpdateEmptyPosition()": [
        {
          "notice": "Cannot update a position with no liquidity"
        }
      ],
      "ERC20TransferFailed()": [
        {
          "notice": "Thrown when an ERC20 transfer fails"
        }
      ],
      "InvalidHookResponse()": [
        {
          "notice": "Hook did not return its selector"
        }
      ],
      "InvalidSqrtRatio()": [
        {
          "notice": "Thrown when the ratio passed to #getTickAtSqrtRatio does not correspond to a price between MIN_TICK and MAX_TICK"
        }
      ],
      "InvalidTick()": [
        {
          "notice": "Thrown when the tick passed to #getSqrtRatioAtTick is not between MIN_TICK and MAX_TICK"
        }
      ],
      "NativeTransferFailed()": [
        {
          "notice": "Thrown when a native transfer fails"
        }
      ],
      "NoLiquidityToReceiveFees()": [
        {
          "notice": "Thrown by donate if there is currently 0 liquidity, since the fees will not go to any liquidity providers"
        }
      ],
      "PoolAlreadyInitialized()": [
        {
          "notice": "Thrown when trying to initalize an already initialized pool"
        }
      ],
      "PoolNotInitialized()": [
        {
          "notice": "Thrown when trying to interact with a non-initialized pool"
        }
      ],
      "PriceLimitAlreadyExceeded(uint160,uint160)": [
        {
          "notice": "Thrown when sqrtPriceLimitX96 on a swap has already exceeded its limit"
        }
      ],
      "PriceLimitOutOfBounds(uint160)": [
        {
          "notice": "Thrown when sqrtPriceLimitX96 lies outside of valid tick/price range"
        }
      ],
      "SwapAmountCannotBeZero()": [
        {
          "notice": "Thrown when trying to swap amount of 0"
        }
      ],
      "TickLiquidityOverflow(int24)": [
        {
          "notice": "For the tick spacing, the tick has too much liquidity"
        }
      ],
      "TickLowerOutOfBounds(int24)": [
        {
          "notice": "Thrown when tickLower is less than min tick"
        }
      ],
      "TickMisaligned(int24,int24)": [
        {
          "notice": "Thrown when the tick is not enumerated by the tick spacing"
        }
      ],
      "TickUpperOutOfBounds(int24)": [
        {
          "notice": "Thrown when tickUpper exceeds max tick"
        }
      ],
      "TicksMisordered(int24,int24)": [
        {
          "notice": "Thrown when tickLower is not below tickUpper"
        }
      ]
    },
    "kind": "user",
    "methods": {
      "MAX_TICK_SPACING()": {
        "notice": "Returns the constant representing the maximum tickSpacing for an initialized pool key"
      },
      "MIN_PROTOCOL_FEE_DENOMINATOR()": {
        "notice": "Returns the minimum denominator for the protocol fee, which restricts it to a maximum of 25%"
      },
      "donate((address,address,uint24,int24,address),uint256,uint256,bytes)": {
        "notice": "Donate the given currency amounts to the pool with the given pool key"
      },
      "extsload(bytes32)": {
        "notice": "Called by external contracts to access granular pool state"
      },
      "getLiquidity(bytes32)": {
        "notice": "Get the current value of liquidity of the given pool"
      },
      "getLiquidity(bytes32,address,int24,int24)": {
        "notice": "Get the current value of liquidity for the specified pool and position"
      },
      "getLock(uint256)": {
        "notice": "Returns the locker in the ith position of the locker queue."
      },
      "getPosition(bytes32,address,int24,int24)": {
        "notice": "Get the position struct for a specified pool and position"
      },
      "getSlot0(bytes32)": {
        "notice": "Get the current value in slot0 of the given pool"
      },
      "hookFeesAccrued(address,address)": {
        "notice": "Given a hook and a currency address, returns the fees accrued"
      },
      "initialize((address,address,uint24,int24,address),uint160,bytes)": {
        "notice": "Initialize the state for a given pool ID"
      },
      "lock(bytes)": {
        "notice": "All operations go through this function"
      },
      "lockData()": {
        "notice": "Returns lock data"
      },
      "mint(address,address,uint256)": {
        "notice": "Called by the user to move value into ERC1155 balance"
      },
      "modifyPosition((address,address,uint24,int24,address),(int24,int24,int256),bytes)": {
        "notice": "Modify the position for the given pool"
      },
      "protocolFeesAccrued(address)": {
        "notice": "Given a currency address, returns the protocol fees accrued in that currency"
      },
      "reservesOf(address)": {
        "notice": "Returns the reserves for a given ERC20 currency"
      },
      "setHookFees((address,address,uint24,int24,address))": {
        "notice": "Sets the hook's swap and withdrawal fees for the given pool"
      },
      "setProtocolFees((address,address,uint24,int24,address))": {
        "notice": "Sets the protocol's swap and withdrawal fees for the given pool Protocol fees are always a portion of a fee that is owed. If that underlying fee is 0, no protocol fees will accrue even if it is set to > 0."
      },
      "settle(address)": {
        "notice": "Called by the user to pay what is owed"
      },
      "swap((address,address,uint24,int24,address),(bool,int256,uint160),bytes)": {
        "notice": "Swap against the given pool"
      },
      "take(address,address,uint256)": {
        "notice": "Called by the user to net out some value owed to the user"
      }
    },
    "notice": "Holds the state for all pools",
    "version": 1
  },
  "storageLayout": {
    "storage": [
      {
        "astId": 3660,
        "contract": "@uniswap/v4-core/contracts/PoolManager.sol:PoolManager",
        "label": "protocolFeesAccrued",
        "offset": 0,
        "slot": "0",
        "type": "t_mapping(t_userDefinedValueType(Currency)11044,t_uint256)"
      },
      {
        "astId": 3667,
        "contract": "@uniswap/v4-core/contracts/PoolManager.sol:PoolManager",
        "label": "hookFeesAccrued",
        "offset": 0,
        "slot": "1",
        "type": "t_mapping(t_address,t_mapping(t_userDefinedValueType(Currency)11044,t_uint256))"
      },
      {
        "astId": 3670,
        "contract": "@uniswap/v4-core/contracts/PoolManager.sol:PoolManager",
        "label": "protocolFeeController",
        "offset": 0,
        "slot": "2",
        "type": "t_contract(IProtocolFeeController)5778"
      },
      {
        "astId": 77,
        "contract": "@uniswap/v4-core/contracts/PoolManager.sol:PoolManager",
        "label": "_balances",
        "offset": 0,
        "slot": "3",
        "type": "t_mapping(t_uint256,t_mapping(t_address,t_uint256))"
      },
      {
        "astId": 83,
        "contract": "@uniswap/v4-core/contracts/PoolManager.sol:PoolManager",
        "label": "_operatorApprovals",
        "offset": 0,
        "slot": "4",
        "type": "t_mapping(t_address,t_mapping(t_address,t_bool))"
      },
      {
        "astId": 85,
        "contract": "@uniswap/v4-core/contracts/PoolManager.sol:PoolManager",
        "label": "_uri",
        "offset": 0,
        "slot": "5",
        "type": "t_string_storage"
      },
      {
        "astId": 4146,
        "contract": "@uniswap/v4-core/contracts/PoolManager.sol:PoolManager",
        "label": "lockData",
        "offset": 0,
        "slot": "6",
        "type": "t_struct(LockData)5602_storage"
      },
      {
        "astId": 4154,
        "contract": "@uniswap/v4-core/contracts/PoolManager.sol:PoolManager",
        "label": "currencyDelta",
        "offset": 0,
        "slot": "7",
        "type": "t_mapping(t_address,t_mapping(t_userDefinedValueType(Currency)11044,t_int256))"
      },
      {
        "astId": 4161,
        "contract": "@uniswap/v4-core/contracts/PoolManager.sol:PoolManager",
        "label": "reservesOf",
        "offset": 0,
        "slot": "8",
        "type": "t_mapping(t_userDefinedValueType(Currency)11044,t_uint256)"
      },
      {
        "astId": 4167,
        "contract": "@uniswap/v4-core/contracts/PoolManager.sol:PoolManager",
        "label": "pools",
        "offset": 0,
        "slot": "9",
        "type": "t_mapping(t_userDefinedValueType(PoolId)11298,t_struct(State)7141_storage)"
      }
    ],
    "types": {
      "t_address": {
        "encoding": "inplace",
        "label": "address",
        "numberOfBytes": "20"
      },
      "t_bool": {
        "encoding": "inplace",
        "label": "bool",
        "numberOfBytes": "1"
      },
      "t_bytes32": {
        "encoding": "inplace",
        "label": "bytes32",
        "numberOfBytes": "32"
      },
      "t_contract(IProtocolFeeController)5778": {
        "encoding": "inplace",
        "label": "contract IProtocolFeeController",
        "numberOfBytes": "20"
      },
      "t_int128": {
        "encoding": "inplace",
        "label": "int128",
        "numberOfBytes": "16"
      },
      "t_int16": {
        "encoding": "inplace",
        "label": "int16",
        "numberOfBytes": "2"
      },
      "t_int24": {
        "encoding": "inplace",
        "label": "int24",
        "numberOfBytes": "3"
      },
      "t_int256": {
        "encoding": "inplace",
        "label": "int256",
        "numberOfBytes": "32"
      },
      "t_mapping(t_address,t_bool)": {
        "encoding": "mapping",
        "key": "t_address",
        "label": "mapping(address => bool)",
        "numberOfBytes": "32",
        "value": "t_bool"
      },
      "t_mapping(t_address,t_mapping(t_address,t_bool))": {
        "encoding": "mapping",
        "key": "t_address",
        "label": "mapping(address => mapping(address => bool))",
        "numberOfBytes": "32",
        "value": "t_mapping(t_address,t_bool)"
      },
      "t_mapping(t_address,t_mapping(t_userDefinedValueType(Currency)11044,t_int256))": {
        "encoding": "mapping",
        "key": "t_address",
        "label": "mapping(address => mapping(Currency => int256))",
        "numberOfBytes": "32",
        "value": "t_mapping(t_userDefinedValueType(Currency)11044,t_int256)"
      },
      "t_mapping(t_address,t_mapping(t_userDefinedValueType(Currency)11044,t_uint256))": {
        "encoding": "mapping",
        "key": "t_address",
        "label": "mapping(address => mapping(Currency => uint256))",
        "numberOfBytes": "32",
        "value": "t_mapping(t_userDefinedValueType(Currency)11044,t_uint256)"
      },
      "t_mapping(t_address,t_uint256)": {
        "encoding": "mapping",
        "key": "t_address",
        "label": "mapping(address => uint256)",
        "numberOfBytes": "32",
        "value": "t_uint256"
      },
      "t_mapping(t_bytes32,t_struct(Info)8995_storage)": {
        "encoding": "mapping",
        "key": "t_bytes32",
        "label": "mapping(bytes32 => struct Position.Info)",
        "numberOfBytes": "32",
        "value": "t_struct(Info)8995_storage"
      },
      "t_mapping(t_int16,t_uint256)": {
        "encoding": "mapping",
        "key": "t_int16",
        "label": "mapping(int16 => uint256)",
        "numberOfBytes": "32",
        "value": "t_uint256"
      },
      "t_mapping(t_int24,t_struct(TickInfo)7116_storage)": {
        "encoding": "mapping",
        "key": "t_int24",
        "label": "mapping(int24 => struct Pool.TickInfo)",
        "numberOfBytes": "32",
        "value": "t_struct(TickInfo)7116_storage"
      },
      "t_mapping(t_uint256,t_mapping(t_address,t_uint256))": {
        "encoding": "mapping",
        "key": "t_uint256",
        "label": "mapping(uint256 => mapping(address => uint256))",
        "numberOfBytes": "32",
        "value": "t_mapping(t_address,t_uint256)"
      },
      "t_mapping(t_userDefinedValueType(Currency)11044,t_int256)": {
        "encoding": "mapping",
        "key": "t_userDefinedValueType(Currency)11044",
        "label": "mapping(Currency => int256)",
        "numberOfBytes": "32",
        "value": "t_int256"
      },
      "t_mapping(t_userDefinedValueType(Currency)11044,t_uint256)": {
        "encoding": "mapping",
        "key": "t_userDefinedValueType(Currency)11044",
        "label": "mapping(Currency => uint256)",
        "numberOfBytes": "32",
        "value": "t_uint256"
      },
      "t_mapping(t_userDefinedValueType(PoolId)11298,t_struct(State)7141_storage)": {
        "encoding": "mapping",
        "key": "t_userDefinedValueType(PoolId)11298",
        "label": "mapping(PoolId => struct Pool.State)",
        "numberOfBytes": "32",
        "value": "t_struct(State)7141_storage"
      },
      "t_string_storage": {
        "encoding": "bytes",
        "label": "string",
        "numberOfBytes": "32"
      },
      "t_struct(Info)8995_storage": {
        "encoding": "inplace",
        "label": "struct Position.Info",
        "members": [
          {
            "astId": 8990,
            "contract": "@uniswap/v4-core/contracts/PoolManager.sol:PoolManager",
            "label": "liquidity",
            "offset": 0,
            "slot": "0",
            "type": "t_uint128"
          },
          {
            "astId": 8992,
            "contract": "@uniswap/v4-core/contracts/PoolManager.sol:PoolManager",
            "label": "feeGrowthInside0LastX128",
            "offset": 0,
            "slot": "1",
            "type": "t_uint256"
          },
          {
            "astId": 8994,
            "contract": "@uniswap/v4-core/contracts/PoolManager.sol:PoolManager",
            "label": "feeGrowthInside1LastX128",
            "offset": 0,
            "slot": "2",
            "type": "t_uint256"
          }
        ],
        "numberOfBytes": "96"
      },
      "t_struct(LockData)5602_storage": {
        "encoding": "inplace",
        "label": "struct IPoolManager.LockData",
        "members": [
          {
            "astId": 5598,
            "contract": "@uniswap/v4-core/contracts/PoolManager.sol:PoolManager",
            "label": "length",
            "offset": 0,
            "slot": "0",
            "type": "t_uint128"
          },
          {
            "astId": 5601,
            "contract": "@uniswap/v4-core/contracts/PoolManager.sol:PoolManager",
            "label": "nonzeroDeltaCount",
            "offset": 16,
            "slot": "0",
            "type": "t_uint128"
          }
        ],
        "numberOfBytes": "32"
      },
      "t_struct(Slot0)7107_storage": {
        "encoding": "inplace",
        "label": "struct Pool.Slot0",
        "members": [
          {
            "astId": 7100,
            "contract": "@uniswap/v4-core/contracts/PoolManager.sol:PoolManager",
            "label": "sqrtPriceX96",
            "offset": 0,
            "slot": "0",
            "type": "t_uint160"
          },
          {
            "astId": 7102,
            "contract": "@uniswap/v4-core/contracts/PoolManager.sol:PoolManager",
            "label": "tick",
            "offset": 20,
            "slot": "0",
            "type": "t_int24"
          },
          {
            "astId": 7104,
            "contract": "@uniswap/v4-core/contracts/PoolManager.sol:PoolManager",
            "label": "protocolFees",
            "offset": 23,
            "slot": "0",
            "type": "t_uint24"
          },
          {
            "astId": 7106,
            "contract": "@uniswap/v4-core/contracts/PoolManager.sol:PoolManager",
            "label": "hookFees",
            "offset": 26,
            "slot": "0",
            "type": "t_uint24"
          }
        ],
        "numberOfBytes": "32"
      },
      "t_struct(State)7141_storage": {
        "encoding": "inplace",
        "label": "struct Pool.State",
        "members": [
          {
            "astId": 7120,
            "contract": "@uniswap/v4-core/contracts/PoolManager.sol:PoolManager",
            "label": "slot0",
            "offset": 0,
            "slot": "0",
            "type": "t_struct(Slot0)7107_storage"
          },
          {
            "astId": 7122,
            "contract": "@uniswap/v4-core/contracts/PoolManager.sol:PoolManager",
            "label": "feeGrowthGlobal0X128",
            "offset": 0,
            "slot": "1",
            "type": "t_uint256"
          },
          {
            "astId": 7124,
            "contract": "@uniswap/v4-core/contracts/PoolManager.sol:PoolManager",
            "label": "feeGrowthGlobal1X128",
            "offset": 0,
            "slot": "2",
            "type": "t_uint256"
          },
          {
            "astId": 7126,
            "contract": "@uniswap/v4-core/contracts/PoolManager.sol:PoolManager",
            "label": "liquidity",
            "offset": 0,
            "slot": "3",
            "type": "t_uint128"
          },
          {
            "astId": 7131,
            "contract": "@uniswap/v4-core/contracts/PoolManager.sol:PoolManager",
            "label": "ticks",
            "offset": 0,
            "slot": "4",
            "type": "t_mapping(t_int24,t_struct(TickInfo)7116_storage)"
          },
          {
            "astId": 7135,
            "contract": "@uniswap/v4-core/contracts/PoolManager.sol:PoolManager",
            "label": "tickBitmap",
            "offset": 0,
            "slot": "5",
            "type": "t_mapping(t_int16,t_uint256)"
          },
          {
            "astId": 7140,
            "contract": "@uniswap/v4-core/contracts/PoolManager.sol:PoolManager",
            "label": "positions",
            "offset": 0,
            "slot": "6",
            "type": "t_mapping(t_bytes32,t_struct(Info)8995_storage)"
          }
        ],
        "numberOfBytes": "224"
      },
      "t_struct(TickInfo)7116_storage": {
        "encoding": "inplace",
        "label": "struct Pool.TickInfo",
        "members": [
          {
            "astId": 7109,
            "contract": "@uniswap/v4-core/contracts/PoolManager.sol:PoolManager",
            "label": "liquidityGross",
            "offset": 0,
            "slot": "0",
            "type": "t_uint128"
          },
          {
            "astId": 7111,
            "contract": "@uniswap/v4-core/contracts/PoolManager.sol:PoolManager",
            "label": "liquidityNet",
            "offset": 16,
            "slot": "0",
            "type": "t_int128"
          },
          {
            "astId": 7113,
            "contract": "@uniswap/v4-core/contracts/PoolManager.sol:PoolManager",
            "label": "feeGrowthOutside0X128",
            "offset": 0,
            "slot": "1",
            "type": "t_uint256"
          },
          {
            "astId": 7115,
            "contract": "@uniswap/v4-core/contracts/PoolManager.sol:PoolManager",
            "label": "feeGrowthOutside1X128",
            "offset": 0,
            "slot": "2",
            "type": "t_uint256"
          }
        ],
        "numberOfBytes": "96"
      },
      "t_uint128": {
        "encoding": "inplace",
        "label": "uint128",
        "numberOfBytes": "16"
      },
      "t_uint160": {
        "encoding": "inplace",
        "label": "uint160",
        "numberOfBytes": "20"
      },
      "t_uint24": {
        "encoding": "inplace",
        "label": "uint24",
        "numberOfBytes": "3"
      },
      "t_uint256": {
        "encoding": "inplace",
        "label": "uint256",
        "numberOfBytes": "32"
      },
      "t_userDefinedValueType(Currency)11044": {
        "encoding": "inplace",
        "label": "Currency",
        "numberOfBytes": "20"
      },
      "t_userDefinedValueType(PoolId)11298": {
        "encoding": "inplace",
        "label": "PoolId",
        "numberOfBytes": "32"
      }
    }
  }
}